{
  "contractName": "BidPost",
  "abi": [
    {
      "inputs": [],
      "stateMutability": "nonpayable",
      "type": "constructor"
    },
    {
      "inputs": [],
      "name": "author",
      "outputs": [
        {
          "internalType": "address",
          "name": "",
          "type": "address"
        }
      ],
      "stateMutability": "view",
      "type": "function",
      "constant": true
    },
    {
      "inputs": [],
      "name": "message",
      "outputs": [
        {
          "internalType": "string",
          "name": "",
          "type": "string"
        }
      ],
      "stateMutability": "view",
      "type": "function",
      "constant": true
    },
    {
      "inputs": [],
      "name": "owner",
      "outputs": [
        {
          "internalType": "address",
          "name": "",
          "type": "address"
        }
      ],
      "stateMutability": "view",
      "type": "function",
      "constant": true
    },
    {
      "inputs": [],
      "name": "placeBid",
      "outputs": [],
      "stateMutability": "payable",
      "type": "function",
      "payable": true
    },
    {
      "inputs": [],
      "name": "getLatestBid",
      "outputs": [
        {
          "internalType": "uint256",
          "name": "",
          "type": "uint256"
        }
      ],
      "stateMutability": "view",
      "type": "function",
      "constant": true
    },
    {
      "inputs": [],
      "name": "getBalance",
      "outputs": [
        {
          "internalType": "uint256",
          "name": "",
          "type": "uint256"
        }
      ],
      "stateMutability": "view",
      "type": "function",
      "constant": true
    },
    {
      "inputs": [],
      "name": "resetLatestBid",
      "outputs": [],
      "stateMutability": "nonpayable",
      "type": "function"
    },
    {
      "inputs": [],
      "name": "getAuthor",
      "outputs": [
        {
          "internalType": "address",
          "name": "",
          "type": "address"
        }
      ],
      "stateMutability": "view",
      "type": "function",
      "constant": true
    },
    {
      "inputs": [],
      "name": "getMessage",
      "outputs": [
        {
          "internalType": "string",
          "name": "",
          "type": "string"
        }
      ],
      "stateMutability": "view",
      "type": "function",
      "constant": true
    },
    {
      "inputs": [],
      "name": "getOwner",
      "outputs": [
        {
          "internalType": "address",
          "name": "",
          "type": "address"
        }
      ],
      "stateMutability": "view",
      "type": "function",
      "constant": true
    }
  ],
  "bytecode": "0x60806040526000805534801561001457600080fd5b5033600360006101000a81548173ffffffffffffffffffffffffffffffffffffffff021916908373ffffffffffffffffffffffffffffffffffffffff16021790555061076d806100656000396000f3fe6080604052600436106100915760003560e01c8063a5faa12511610059578063a5faa12514610159578063a6c3e6b914610184578063ce6d41de146101af578063e21f37ce146101da578063ecfc7ecc1461020557610091565b806312065fe014610096578063229c5c50146100c157806375e51af9146100d8578063893d20e8146101035780638da5cb5b1461012e575b600080fd5b3480156100a257600080fd5b506100ab61020f565b6040516100b8919061061f565b60405180910390f35b3480156100cd57600080fd5b506100d6610271565b005b3480156100e457600080fd5b506100ed6102d4565b6040516100fa919061061f565b60405180910390f35b34801561010f57600080fd5b506101186102dd565b60405161012591906105c2565b60405180910390f35b34801561013a57600080fd5b50610143610307565b60405161015091906105c2565b60405180910390f35b34801561016557600080fd5b5061016e61032d565b60405161017b91906105c2565b60405180910390f35b34801561019057600080fd5b50610199610357565b6040516101a691906105c2565b60405180910390f35b3480156101bb57600080fd5b506101c461037d565b6040516101d191906105dd565b60405180910390f35b3480156101e657600080fd5b506101ef61040f565b6040516101fc91906105dd565b60405180910390f35b61020d61049d565b005b6000600360009054906101000a900473ffffffffffffffffffffffffffffffffffffffff1673ffffffffffffffffffffffffffffffffffffffff163373ffffffffffffffffffffffffffffffffffffffff161461026b57600080fd5b47905090565b600360009054906101000a900473ffffffffffffffffffffffffffffffffffffffff1673ffffffffffffffffffffffffffffffffffffffff163373ffffffffffffffffffffffffffffffffffffffff16146102cb57600080fd5b60008081905550565b60008054905090565b6000600360009054906101000a900473ffffffffffffffffffffffffffffffffffffffff16905090565b600360009054906101000a900473ffffffffffffffffffffffffffffffffffffffff1681565b6000600160009054906101000a900473ffffffffffffffffffffffffffffffffffffffff16905090565b600160009054906101000a900473ffffffffffffffffffffffffffffffffffffffff1681565b60606002805461038c906106c5565b80601f01602080910402602001604051908101604052809291908181526020018280546103b8906106c5565b80156104055780601f106103da57610100808354040283529160200191610405565b820191906000526020600020905b8154815290600101906020018083116103e857829003601f168201915b5050505050905090565b6002805461041c906106c5565b80601f0160208091040260200160405190810160405280929190818152602001828054610448906106c5565b80156104955780601f1061046a57610100808354040283529160200191610495565b820191906000526020600020905b81548152906001019060200180831161047857829003601f168201915b505050505081565b34600054106104e1576040517f08c379a00000000000000000000000000000000000000000000000000000000081526004016104d8906105ff565b60405180910390fd5b3460008190555033600160006101000a81548173ffffffffffffffffffffffffffffffffffffffff021916908373ffffffffffffffffffffffffffffffffffffffff160217905550565b61053481610656565b82525050565b60006105458261063a565b61054f8185610645565b935061055f818560208601610692565b61056881610726565b840191505092915050565b6000610580600e83610645565b91507f42696420697320746f6f206c6f770000000000000000000000000000000000006000830152602082019050919050565b6105bc81610688565b82525050565b60006020820190506105d7600083018461052b565b92915050565b600060208201905081810360008301526105f7818461053a565b905092915050565b6000602082019050818103600083015261061881610573565b9050919050565b600060208201905061063460008301846105b3565b92915050565b600081519050919050565b600082825260208201905092915050565b600061066182610668565b9050919050565b600073ffffffffffffffffffffffffffffffffffffffff82169050919050565b6000819050919050565b60005b838110156106b0578082015181840152602081019050610695565b838111156106bf576000848401525b50505050565b600060028204905060018216806106dd57607f821691505b602082108114156106f1576106f06106f7565b5b50919050565b7f4e487b7100000000000000000000000000000000000000000000000000000000600052602260045260246000fd5b6000601f19601f830116905091905056fea2646970667358221220b6d037adf4e640a9009ee0c7dd7f941f0d29be1d98479979517c47edcbb9a15064736f6c63430008000033",
  "immutableReferences": {},
  "source": "pragma solidity ^0.8.0;\r\n\r\ncontract BidPost {\r\n    uint latestBid = 0;\r\n    address public author;\r\n    string public message;\r\n    address public owner;\r\n\r\n    constructor() {\r\n        owner = msg.sender;\r\n    }\r\n\r\n    modifier onlyOwner() {\r\n        require(msg.sender == owner);\r\n        _;\r\n    }\r\n\r\n    function placeBid() public payable {\r\n        require(latestBid < msg.value, \"Bid is too low\");\r\n        latestBid = msg.value;\r\n        author = msg.sender;\r\n    }\r\n\r\n    // do I need this function?\r\n    function getLatestBid() public view returns (uint) {\r\n        return latestBid;\r\n    }\r\n\r\n    function getBalance() public view onlyOwner returns (uint) {\r\n        return address(this).balance;\r\n    }\r\n\r\n    // for testing purposes\r\n    function resetLatestBid() public onlyOwner {\r\n        latestBid = 0;\r\n    }\r\n\r\n    function getAuthor() public view returns (address) {\r\n        return author;\r\n    }\r\n\r\n    function getMessage() public view returns (string memory) {\r\n        return message;\r\n    }\r\n\r\n    function getOwner() public view returns (address) {\r\n        return owner;\r\n    }\r\n}",
  "sourcePath": "C:/Users/97252/DApp/first-project/BidPost/contracts/BidPost.sol",
  "compiler": {
    "name": "solc",
    "version": "0.8.0+commit.c7dfd78e.Emscripten.clang"
  },
  "schemaVersion": "3.4.1",
  "updatedAt": "2021-09-07T07:52:09.609Z",
  "networkType": "ethereum",
  "devdoc": {
    "kind": "dev",
    "methods": {},
    "version": 1
  },
  "userdoc": {
    "kind": "user",
    "methods": {},
    "version": 1
  }
}